{
    "contractName": "ZombieFactory",
    "abi": [
        {
            "anonymous": false,
            "inputs": [
                {
                    "indexed": false,
                    "internalType": "uint256",
                    "name": "zombieId",
                    "type": "uint256"
                },
                {
                    "indexed": false,
                    "internalType": "string",
                    "name": "name",
                    "type": "string"
                },
                {
                    "indexed": false,
                    "internalType": "uint256",
                    "name": "dna",
                    "type": "uint256"
                }
            ],
            "name": "NewZombie",
            "type": "event"
        },
        {
            "inputs": [
                {
                    "internalType": "string",
                    "name": "_name",
                    "type": "string"
                }
            ],
            "name": "createRandomZombie",
            "outputs": [],
            "stateMutability": "nonpayable",
            "type": "function"
        },
        {
            "inputs": [
                {
                    "internalType": "uint256",
                    "name": "",
                    "type": "uint256"
                }
            ],
            "name": "zombies",
            "outputs": [
                {
                    "internalType": "string",
                    "name": "name",
                    "type": "string"
                },
                {
                    "internalType": "uint256",
                    "name": "dna",
                    "type": "uint256"
                }
            ],
            "stateMutability": "view",
            "type": "function"
        }
    ],
    "bytecode": "60806040526010600081905561001690600a61006e565b60015534801561002557600080fd5b5061013a565b600181815b8085111561006657816000190482111561004c5761004c610124565b8085161561005957918102915b93841c9390800290610030565b509250929050565b600061007a8383610081565b9392505050565b6000826100905750600161011e565b8161009d5750600061011e565b81600181146100b357600281146100bd576100d9565b600191505061011e565b60ff8411156100ce576100ce610124565b50506001821b61011e565b5060208310610133831016604e8410600b84101617156100fc575081810a61011e565b610106838361002b565b806000190482111561011a5761011a610124565b0290505b92915050565b634e487b7160e01b600052601160045260246000fd5b610545806101496000396000f3fe608060405234801561001057600080fd5b50600436106100365760003560e01c80632052465e1461003b5780637bff0a0114610065575b600080fd5b61004e61004936600461039b565b61007a565b60405161005c9291906103fc565b60405180910390f35b6100786100733660046102ea565b610136565b005b6002818154811061008a57600080fd5b90600052602060002090600202016000915090508060000180546100ad9061049c565b80601f01602080910402602001604051908101604052809291908181526020018280546100d99061049c565b80156101265780601f106100fb57610100808354040283529160200191610126565b820191906000526020600020905b81548152906001019060200180831161010957829003601f168201915b5050505050908060010154905082565b600061014182610151565b905061014d8282610195565b5050565b6000808260405160200161016591906103e0565b6040516020818303038152906040528051906020012060001c90506001548161018e91906104d7565b9392505050565b60408051808201909152828152602080820183905260028054600181018255600082905283518051919092027f405787fa12a823e0f2b7631cc41b3ba8828b3321ca811111fa75cd3aa3bb5ace01926101f2928492910190610251565b506020919091015160019182015560025460009161020f91610447565b90507f88f026aacbbecc90c18411df4b1185fd8d9be2470f1962f192bf84a27d0704b78184846040516102449392919061041e565b60405180910390a1505050565b82805461025d9061049c565b90600052602060002090601f01602090048101928261027f57600085556102c5565b82601f1061029857805160ff19168380011785556102c5565b828001600101855582156102c5579182015b828111156102c55782518255916020019190600101906102aa565b506102d19291506102d5565b5090565b5b808211156102d157600081556001016102d6565b6000602082840312156102fc57600080fd5b813567ffffffffffffffff8082111561031457600080fd5b818401915084601f83011261032857600080fd5b81358181111561033a5761033a6104f9565b604051601f8201601f19908116603f01168101908382118183101715610362576103626104f9565b8160405282815287602084870101111561037b57600080fd5b826020860160208301376000928101602001929092525095945050505050565b6000602082840312156103ad57600080fd5b5035919050565b600081518084526103cc81602086016020860161046c565b601f01601f19169290920160200192915050565b600082516103f281846020870161046c565b9190910192915050565b60408152600061040f60408301856103b4565b90508260208301529392505050565b83815260606020820152600061043760608301856103b4565b9050826040830152949350505050565b60008282101561046757634e487b7160e01b600052601160045260246000fd5b500390565b60005b8381101561048757818101518382015260200161046f565b83811115610496576000848401525b50505050565b600181811c908216806104b057607f821691505b602082108114156104d157634e487b7160e01b600052602260045260246000fd5b50919050565b6000826104f457634e487b7160e01b600052601260045260246000fd5b500690565b634e487b7160e01b600052604160045260246000fdfea26469706673582212201d9c606c59704fcdc21a474ef328fd1d2714ebb3c5ee926c52a68500fc1cd24664736f6c63430008070033",
    "sourcePath": "c:/Users/GRAND/Documents/Blockchain/Solidity/solidity practice/contracts/Zombie.sol",
    "compiler": {
        "name": "solc",
        "version": "0.8.7+commit.e28d00a7"
    },
    "functionHashes": {
        "createRandomZombie(string)": "7bff0a01",
        "zombies(uint256)": "2052465e"
    },
    "gasEstimates": {
        "creation": {
            "codeDepositCost": "269800",
            "executionCost": "44863",
            "totalCost": "314663"
        },
        "external": {
            "createRandomZombie(string)": "infinite",
            "zombies(uint256)": "infinite"
        },
        "internal": {
            "_createZombie(string memory,uint256)": "infinite",
            "_generateRandomDna(string memory)": "infinite"
        }
    }
}